:020000040800F2
:1000000000000220ED8500086D7E0008757E000866
:100010007D7E0008857E00088D7E000800000000BF
:10002000000000000000000000000000957E0008B5
:10003000A37E000800000000B17E0008BF7E00081B
:100040003D8600083D8600083D8600083D86000884
:100050003D8600083D8600083D8600083D86000874
:100060003D8600083D8600083D8600083D86000864
:100070003D8600083D8600083D8600083D86000854
:100080003D8600083D8600083D8600083D86000844
:100090003D8600083D8600083D860008CB7E0008AE
:1000A0003D8600083D8600083D8600083D86000824
:1000B0003D8600083D8600083D8600083D86000814
:1000C0003D8600083D8600083D8600083D86000804
:1000D0003D860008E17E00083D8600083D86000858
:1000E0003D8600083D8600083D8600083D860008E4
:1000F0003D8600083D8600083D8600083D860008D4
:100100003D8600083D8600083D8600083D860008C3
:100110003D8600083D8600083D8600083D860008B3
:100120003D8600083D860008F57E00083D860008F3
:100130003D86000800000000000000003D86000829
:100140003D8600083D8600083D8600083D86000883
:100150003D8600083D860008097F00083D860008AE
:100160003D8600083D8600083D8600083D86000863
:100170003D8600083D8600080000000000000000E9
:080180003D8600083D860008E1
:1001900010B5054C237833B9044B13B10448AFF3C1
:1001A00000800123237010BDD80100200000000052
:1001B0009C03010808B5034B1BB103490348AFF387
:1001C000008008BD00000000DC0100209C03010845
:1001D00001F0FF01102A2BDB10F0070F08D010F8F8
:1001E000013B013A8B422DD010F0070F42B3F6D1FC
:1001F000F0B441EA012141EA014122F007047FF015
:1002000000070023F0E80256083C85EA010586EA6B
:10021000010685FA47F5A3FA87F586FA47F6A5FAA7
:1002200087F68EB9EED1F0BC01F0FF0102F00702B3
:1002300032B110F8013B013A83EA010313B1F8D15E
:100240000020704701387047002D06BF354603383F
:10025000073815F0010F07D1013015F4807F02BF78
:10026000013015F4C03F0130F0BC0138704700BFC9
:10027000034613F8012B002AFBD1181A01387047E6
:1002800081F0004102E000BF83F0004330B54FEA47
:1002900041044FEA430594EA050F08BF90EA020FB4
:1002A0001FBF54EA000C55EA020C7FEA645C7FEA47
:1002B000655C00F0E2804FEA5454D4EB5555B8BF6A
:1002C0006D420CDD2C4480EA020281EA030382EADB
:1002D000000083EA010180EA020281EA0303362D6D
:1002E00088BF30BD11F0004F4FEA01314FF4801C40
:1002F0004CEA113102D0404261EB410113F0004F52
:100300004FEA03334CEA133302D0524263EB430308
:1003100094EA050F00F0A780A4F10104D5F1200EA6
:100320000DDB02FA0EFC22FA05F2801841F1000101
:1003300003FA0EF2801843FA05F359410EE0A5F1D5
:1003400020050EF1200E012A03FA0EFC28BF4CF006
:10035000020C43FA05F3C01851EBE37101F00045BC
:1003600007D54FF0000EDCF1000C7EEB00006EEBC9
:100370000101B1F5801F1BD3B1F5001F0CD3490853
:100380005FEA30004FEA3C0C04F101044FEA4452AA
:1003900012F5800F80F09A80BCF1004F08BF5FEA31
:1003A000500C50F1000041EB045141EA050130BD11
:1003B0005FEA4C0C404141EB0101013C28BFB1F523
:1003C000801FE9D291F0000F04BF01460020B1FA6E
:1003D00081F308BF2033A3F10B03B3F120020CDA41
:1003E0000C3208DD02F1140CC2F10C0201FA0CF01F
:1003F00021FA02F10CE002F11402D8BFC2F1200C84
:1004000001FA02F120FA0CFCDCBF41EA0C01904039
:10041000E41AA2BF01EB0451294330BD6FEA040482
:100420001F3C1CDA0C340EDC04F11404C4F120026D
:1004300020FA04F001FA02F340EA030021FA04F37F
:1004400045EA030130BDC4F10C04C4F1200220FAD6
:1004500002F001FA04F340EA0300294630BD21FA14
:1004600004F0294630BD94F0000F83F4801306BFDA
:1004700081F480110134013D4EE77FEA645C18BFCE
:100480007FEA655C29D094EA050F08BF90EA020F65
:1004900005D054EA000C04BF1946104630BD91EA5D
:1004A000030F1EBF0021002030BD5FEA545C05D160
:1004B0004000494128BF41F0004130BD14F580049F
:1004C0003CBF01F5801130BD01F0004545F0FE4113
:1004D00041F470014FF0000030BD7FEA645C1ABF48
:1004E000194610467FEA655C1CBF0B46024650EA7F
:1004F000013406BF52EA033591EA030F41F40021AB
:1005000030BD00BF90F0000F04BF0021704730B530
:100510004FF4806404F132044FF000054FF0000105
:1005200050E700BF90F0000F04BF0021704730B5C6
:100530004FF4806404F1320410F0004548BF40429B
:100540004FF000013EE700BF42004FEAE2014FEAF0
:1005500031014FEA02701FBF12F07F4393F07F4FCB
:1005600081F06051704732F07F4208BF704793F0CE
:100570007F4F04BF41F40021704730B54FF46074E1
:1005800001F0004521F000411CE700BF50EA0102E4
:1005900008BF704730B54FF000050AE050EA01028D
:1005A00008BF704730B511F0004502D5404261EBFD
:1005B00041014FF4806404F132045FEA915C3FF43E
:1005C000D8AE4FF003025FEADC0C18BF03325FEADB
:1005D000DC0C18BF033202EBDC02C2F1200300FA8C
:1005E00003FC20FA02F001FA03FE40EA0E0021FAB1
:1005F00002F11444BDE600BF70B54FF0FF0C4CF49F
:10060000E06C1CEA11541DBF1CEA135594EA0C0F50
:1006100095EA0C0F00F0DEF82C4481EA030621EA8B
:100620004C5123EA4C5350EA013518BF52EA0335C6
:1006300041F4801143F4801338D0A0FB02CE4FF078
:100640000005E1FB02E506F00042E0FB03E54FF0A8
:100650000006E1FB03569CF0000F18BF4EF0010EA0
:10066000A4F1FF04B6F5007F64F5407404D25FEA9C
:100670004E0E6D4146EB060642EAC62141EA55514F
:100680004FEAC52040EA5E504FEACE2EB4F1FD0C91
:1006900088BFBCF5E06F1ED8BEF1004F08BF5FEA0F
:1006A000500E50F1000041EB045170BD06F00046C1
:1006B00046EA010140EA020081EA0301B4EB5C046E
:1006C000C2BFD4EB0C0541EA045170BD41F4801166
:1006D0004FF0000E013C00F3AB8014F1360FDEBF8B
:1006E000002001F0004170BDC4F10004203C35DA67
:1006F0000C341BDC04F11404C4F1200500FA05F3EA
:1007000020FA04F001FA05F240EA020001F000428A
:1007100021F0004110EBD37021FA04F642EB060100
:100720005EEA430E08BF20EAD37070BDC4F10C042A
:10073000C4F1200500FA04F320FA05F001FA04F2EE
:1007400040EA020001F0004110EBD37041F10001DA
:100750005EEA430E08BF20EAD37070BDC4F12005E5
:1007600000FA05F24EEA020E20FA04F301FA05F24D
:1007700043EA020321FA04F001F0004121FA04F2F5
:1007800020EA020000EBD3705EEA430E08BF20EAC5
:10079000D37070BD94F0000F0FD101F000464000FF
:1007A00041EB010111F4801F08BF013CF7D041EA81
:1007B000060195F0000F18BF704703F00046520085
:1007C00043EB030313F4801F08BF013DF7D043EA56
:1007D0000603704794EA0C0F0CEA135518BF95EA0C
:1007E0000C0F0CD050EA410618BF52EA4306D1D193
:1007F00081EA030101F000414FF0000070BD50EAB2
:10080000410606BF1046194652EA430619D094EA3B
:100810000C0F02D150EA013613D195EA0C0F05D125
:1008200052EA03361CBF104619460AD181EA030179
:1008300001F0004141F0FE4141F470014FF0000031
:1008400070BD41F0FE4141F4780170BD70B54FF0CC
:10085000FF0C4CF4E06C1CEA11541DBF1CEA13554C
:1008600094EA0C0F95EA0C0F00F0A7F8A4EB05042E
:1008700081EA030E52EA03354FEA013100F0888025
:100880004FEA03334FF0805545EA131343EA1263EE
:100890004FEA022245EA111545EA10654FEA0026A3
:1008A0000EF000419D4208BF964244F1FD0404F55C
:1008B000407402D25B084FEA3202B61A65EB0305B8
:1008C0005B084FEA32024FF480104FF4002CB6EB75
:1008D000020E75EB030E22BFB61A754640EA0C00F5
:1008E0005B084FEA3202B6EB020E75EB030E22BF35
:1008F000B61A754640EA5C005B084FEA3202B6EB76
:10090000020E75EB030E22BFB61A754640EA9C0034
:100910005B084FEA3202B6EB020E75EB030E22BF04
:10092000B61A754640EADC0055EA060E18D04FEAC2
:10093000051545EA16754FEA06164FEAC30343EA62
:1009400052734FEAC2025FEA1C1CC0D111F4801F2F
:100950000BD141EA00014FF000004FF0004CB6E728
:1009600011F4801F04BF01430020B4F1FD0C88BFC7
:10097000BCF5E06F3FF6AFAEB5EB030C04BFB6EBD2
:10098000020C5FEA500C50F1000041EB045170BDC5
:100990000EF0004E4EEA113114EB5C04C2BFD4EBF2
:1009A0000C0541EA045170BD41F480114FF0000E76
:1009B000013C90E645EA060E8DE60CEA135594EAF2
:1009C0000C0F08BF95EA0C0F3FF43BAF94EA0C0FF5
:1009D0000AD150EA01347FF434AF95EA0C0F7FF46A
:1009E00025AF104619462CE795EA0C0F06D152EABE
:1009F00003353FF4FDAE1046194622E750EA4106A2
:100A000018BF52EA43067FF4C5AE50EA41047FF4B2
:100A10000DAF52EA43057FF4EBAE12E74FF0FF3C17
:100A200006E000BF4FF0010C02E000BF4FF0010CE8
:100A30004DF804CD4FEA410C7FEA6C5C4FEA430C61
:100A400018BF7FEA6C5C1BD001B050EA410C0CBFB0
:100A500052EA430C91EA030F02BF90EA020F002012
:100A6000704710F1000F91EA030F58BF994208BF79
:100A700090422CBFD8176FEAE37040F00100704736
:100A80004FEA410C7FEA6C5C02D150EA013C07D18D
:100A90004FEA430C7FEA6C5CD6D152EA033CD3D0D8
:100AA0005DF8040B704700BF8446104662468C46D2
:100AB0001946634600E000BF01B5FFF7B7FF002805
:100AC00048BF10F1000F01BD4DF808EDFFF7F4FF2E
:100AD0000CBF012000205DF808FB00BF4DF808EDB9
:100AE000FFF7EAFF34BF012000205DF808FB00BFDC
:100AF0004DF808EDFFF7E0FF94BF012000205DF8FE
:100B000008FB00BF4DF808EDFFF7CEFF94BF0120B2
:100B100000205DF808FB00BF4DF808EDFFF7C4FFAB
:100B200034BF012000205DF808FB00BF4FEA410CF4
:100B30007FEA6C5C02D150EA013C0AD14FEA430CD7
:100B40007FEA6C5C02D152EA033C02D14FF0000014
:100B500070474FF0010070474FEA410212F5001252
:100B600015D211D56FF47873B3EB625212D94FEAF4
:100B7000C12343F0004343EA505311F0004F23FADE
:100B800002F018BF404270474FF00000704750EA33
:100B9000013005D111F0004008BF6FF000407047F0
:100BA0004FF00000704700BF4FEA4102B2F1E0434E
:100BB00024BFB3F5001CDCF1FE5C0DD901F0004C44
:100BC0004FEAC0024CEA5070B2F1004F40EB830094
:100BD00008BF20F00100704711F0804F21D113F1C0
:100BE0003872BCBF01F00040704741F480114FEAF9
:100BF0005252C2F11802C2F1200C10FA0CF320FA82
:100C000002F018BF40F001004FEAC1234FEAD3239E
:100C100003FA0CFC40EA0C0023FA02F34FEA430308
:100C2000CCE77FEA625307D150EA01331EBF4FF091
:100C3000FE4040F44000704701F0004040F0FE40AC
:100C400040F40000704700BF53B94AB9002908BFFB
:100C500000281CBF4FF0FF314FF0FF3000F088B983
:100C6000ADF1080C6DE904CE00F006F8DDF804E003
:100C7000DDE9022304B070472DE9F047089D8E4658
:100C800004468846002B4AD18A42174662D9B2FAF6
:100C900082F64EB1C6F1200301FA06F820FA03F3FA
:100CA000B74043EA0808B4404FEA174E1FFA87FCE2
:100CB000B8FBFEF1230C0EFB118843EA084301FB4D
:100CC0000CF29A4209D9FB1801F1FF3080F0EA805A
:100CD0009A4240F2E78002393B449A1AA3B2B2FB2F
:100CE000FEF00EFB102243EA024300FB0CFC9C4585
:100CF00009D9FB1800F1FF3280F0D6809C4540F204
:100D0000D3803B44023840EA0140A3EB0C030021AE
:100D10001DB1F3400022C5E90032BDE8F0878B42E7
:100D200005D90DB1C5E9000100210846F5E7B3FA80
:100D300083F1002946D1734502D3824200F2058136
:100D4000841A6EEB030201209046002DE5D0C5E920
:100D50000048E2E7002A00F09080B2FA82F6002E06
:100D600040F0A4808A1A030C4FEA174E80B2BCB23E
:100D70000121B2FBFEFC0EFB1C2243EA024304FBF2
:100D80000CF29A4207D9FB180CF1FF3802D29A42B2
:100D900000F2E080C4469B1AB3FBFEF20EFB123356
:100DA00040EA034302FB04F49C4207D9FB1802F11A
:100DB000FF3002D29C4200F2CA8002461B1B42EA6C
:100DC0000C40A5E7C1F120068B4022FA06F71F432D
:100DD0000EFA01F420FA06F32EFA06FE4FEA17493E
:100DE000234300FA01F81FFA87FCBEFBF9F01C0C44
:100DF00009FB10EE44EA0E4400FB0CFEA64502FA85
:100E000001F209D93C1900F1FF3A80F09C80A64517
:100E100040F2998002383C44A4EB0E041FFA83FE92
:100E2000B4FBF9F309FB13444EEA044403FB0CFC46
:100E3000A44508D93C1903F1FF3E80F08280A44507
:100E40007FD9023B3C4443EA0040A4EB0C04A0FBE6
:100E500002EC64457346E14662D35FD05DB1B8EB06
:100E6000030264EB090404FA06F622FA01F31E43B6
:100E7000CC40C5E9006400214FE7B1FBF2FC010C56
:100E800041EA0E4180B240EA01423B4638463C46C8
:100E9000B846BE462026B1FBF7F1A2EB080241EAB4
:100EA0000C4166E7014618E710462CE7C6F1200220
:100EB0002EFA02F3B740B14020FA02F24FEA174E81
:100EC0000A43B3FBFEF8BCB20EFB1833110C41EA27
:100ED000034108FB04F9B04089454FEA104380B252
:100EE0003ED9791808F1FF3C01D289451FD8A1EB02
:100EF0000901B1FBFEF909FB04F80EFB191192B2CE
:100F000042EA0142424529D2BA1809F1FF31C4D25E
:100F10004245C2D2A9F102013A44BEE7F0459DD252
:100F2000BEEB02036CEB070C0138E14696E7A7EB3A
:100F300009094944A8F1020CB1FBFEF909FB04F8C8
:100F4000DBE773467FE7504666E70846FDE63B442D
:100F5000023A33E7ACF1020C3B441CE749469CE7FC
:100F6000A1EB0901C446B1FBFEF909FB04F8C4E793
:100F7000704700BF80B582B000AF00237B60104B8C
:100F80001B6B0F4A43F4800313630D4B1B6B03F47D
:100F900080037B607B68002200213A2007F0C1FCBF
:100FA0003A2007F0DAFC00220021462007F0B9FCC5
:100FB000462007F0D2FC00BF0837BD4680BD00BF09
:100FC0000038024080B58AB000AF07F11403002258
:100FD0001A605A609A60DA601A6100233B61324BF2
:100FE0001B6B314A43F0800313632F4B1B6B03F0E1
:100FF00080033B613B690023FB602B4B1B6B2A4A40
:1010000043F004031363284B1B6B03F00403FB60E2
:10101000FB680023BB60244B1B6B234A43F0010396
:101020001363214B1B6B03F00103BB60BB68002300
:101030007B601D4B1B6B1C4A43F0020313631A4B6E
:101040001B6B03F002037B607B6800224FF480710E
:10105000164808F053FA4FF480737B610123BB619B
:101060000023FB6100233B6207F1140319460F487C
:1010700008F090F860237B614FF44413BB610023B8
:10108000FB6107F114031946094808F083F80022B0
:101090000521172007F045FC172007F05EFC00BF74
:1010A0002837BD4680BD00BF00380240000802401E
:1010B0000004024080B500AF124B134A1A60114B76
:1010C000124A5A600F4B00229A600E4B0022DA60DF
:1010D0000C4B4FF480421A610A4B00225A61094BB3
:1010E00000229A61074B0022DA61064B00221A6245
:1010F000044808F035FA0346002B01D000F0F4F85C
:1011000000BF80BDF4010020005C0040A08601000B
:1011100080B58AB000AF786007F1140300221A602E
:101120005A609A60DA601A617B681B68294A9342A8
:101130004BD100233B61284B1B6B274A43F0040330
:101140001363254B1B6B03F004033B613B690023D6
:10115000FB60214B1B6B204A43F0010313631E4BC2
:101160001B6B03F00103FB60FB684FF400737B61B2
:101170001223BB610023FB6103233B6204237B62D8
:1011800007F114031946154808F004F84FF480736A
:101190007B611223BB610023FB6103233B620423B9
:1011A0007B6207F1140319460D4807F0F3FF002393
:1011B000BB60094B1B6C084A43F400031364064BE5
:1011C0001B6C03F40003BB60BB6800BF2837BD463F
:1011D00080BD00BF005C00400038024000080240B3
:1011E0000000024080B500AF07F02AFA00F012F8C4
:1011F000FFF7E8FEFFF7BEFE07F018F9FFF75AFF0A
:1012000006F064FF06F0F2FF05F082FB05F0CCFB70
:10121000FCE7000080B594B000AF07F12003302256
:10122000002118460DF08BF907F10C0300221A601B
:101230005A609A60DA601A610023BB60284B1B6C0D
:10124000274A43F080531364254B1B6C03F08053F3
:10125000BB60BB6800237B60224B1B68214A43F4C0
:10126000804313601F4B1B6803F480437B607B68E3
:1012700001233B624FF480337B620223BB634FF454
:101280008003FB6310233B644FF4A8737B64042347
:10129000BB640423FB6407F12003184609F084F9BA
:1012A0000346002B01D000F01FF80F23FB60022340
:1012B0003B6100237B614FF48053BB610023FB61E2
:1012C00007F10C030221184609F0E6FB0346002B48
:1012D00001D000F009F800BF5037BD4680BD00BF07
:1012E000003802400070004080B400AF72B600BF0A
:1012F00000BFFDE780B483B000AF78607B68002258
:101300001A607B6800225A607B6818460C37BD461D
:101310005DF8047B7047000080B483B000AF786054
:10132000044A7B681A607B6818460C37BD465DF836
:10133000047B70477009010880B582B000AF786007
:101340007B681846FFF7E8FF064A7B681A607B68EF
:1013500004331846FFF7CEFF7B6818460837BD46B2
:1013600080BD00BF5809010880B485B000AF786027
:1013700039600023FB607B685968FB683A68134456
:10138000CAB21A707B685B68190AFB6801333A6855
:101390001344CAB21A707B685B68190CFB6802338D
:1013A0003A681344CAB21A707B685B68190EFB680E
:1013B00003333A681344CAB21A70FB680433FB6003
:1013C0007B689968FB683A681344CAB21A707B68F4
:1013D0009B68190AFB6801333A681344CAB21A7051
:1013E0007B689B68190CFB6802333A681344CAB2E5
:1013F0001A707B689B68190EFB6803333A681344C4
:10140000CAB21A70FB680433FB60FB6818461437D5
:10141000BD465DF8047B704780B485B000AF78604E
:1014200039600023FB60FB683A6813441B781A4656
:101430007B685A607B685A68FB68013339680B44E3
:101440001B781B021A437B685A607B685A68FB68EA
:10145000023339680B441B781B041A437B685A60BB
:101460007B685A68FB68033339680B441B781B069A
:101470001A437B685A60FB680433FB60FB683A6878
:1014800013441B781A467B689A607B689A68FB68ED
:10149000013339680B441B781B021A437B689A603E
:1014A0007B689A68FB68023339680B441B781B041D
:1014B0001A437B689A607B689A68FB6803333968D3
:1014C0000B441B781B061A437B689A60FB68043345
:1014D000FB60FB6818461437BD465DF8047B704717
:1014E00080B483B000AF7860034B18460C37BD461C
:1014F0005DF8047B704700BFB803010880B483B077
:1015000000AF7860034B18460C37BD465DF8047B8E
:10151000704700BFC803010880B582B000AF786093
:101520007B681846FFF7F8FE0B4A7B681A607B68F9
:1015300000229A807B68094A9A607B68074ADA60D1
:101540007B68064A1A617B6800225A617B681846EC
:101550000837BD4680BD00BF40090108EC03010803
:1015600080B588B000AF786039600023FB617B688C
:101570009988FB693A681344CAB21A707B689B88E1
:101580001B0A99B2FB6901333A681344CAB21A7054
:10159000FB690233FB617B689B681846FEF768FEB7
:1015A000B861FB693A681344B969184605F0EAFB6B
:1015B000FB690433FB61FB693A68D0187B689B6860
:1015C000BA6919460DF03BF8FA69BB691344FB612F
:1015D0007B68DB681846FEF74BFE7861FB693A686A
:1015E00013447969184605F0CDFBFB690433FB61B0
:1015F000FB693A68D0187B68DB687A6919460DF098
:101600001EF8FA697B691344FB617B681B69184605
:10161000FEF72EFE3861FB693A68134439691846B3
:1016200005F0B0FBFB690433FB61FB693A68D01835
:101630007B681B693A6919460DF001F8FA693B6944
:101640001344FB617B685B69FB60F968FB693A687E
:101650001344CAB21A70FB68190AFB6901333A686D
:101660001344CAB21A70FB68190CFB6902333A685A
:101670001344CAB21A70FB68190EFB6903333A6847
:101680001344CAB21A70FB690433FB61FB69184644
:101690002037BD4680BD80B58AB000AF7860396024
:1016A0000023BB61BB693A6813441B781A467B6808
:1016B0009A807B689B881AB2BB69013339680B44F6
:1016C0001B781BB21B021BB213431BB29AB27B687E
:1016D0009A80BB690233BB61BB693A681A4407F15F
:1016E00014031146184605F06CFBBB690433BB615B
:1016F000BB697B620BE03A687B6A1A447B6A013BF8
:1017000039680B4412781A707B6A01337B62BA69BC
:101710007B6913447A6A9A42EDD3BA697B691344B0
:10172000013B3A68134400221A70BB69013B3A68D6
:101730001A447B689A60BA697B691344BB61BB69D0
:101740003A681A4407F110031146184605F039FBB0
:10175000BB690433BB61BB693B620BE03A683B6A1F
:101760001A443B6A013B39680B4412781A703B6A91
:1017700001333B62BA693B6913443A6A9A42EDD33A
:10178000BA693B691344013B3A68134400221A705A
:10179000BB69013B3A681A447B68DA60BA693B6905
:1017A0001344BB61BB693A681A4407F10C03114644
:1017B000184605F006FBBB690433BB61BB69FB61DE
:1017C0000BE03A68FB691A44FB69013B39680B443A
:1017D00012781A70FB690133FB61BA69FB68134424
:1017E000FA699A42EDD3BA69FB681344013B3A683F
:1017F000134400221A70BB69013B3A681A447B68A3
:101800001A61BA69FB681344BB610023BB60BB6803
:10181000BA6939680A4412781343BB60BA68BB6975
:10182000013339680B441B781B021343BB60BA6851
:10183000BB69023339680B441B781B041343BB603C
:10184000BA68BB69033339680B441B781B06134322
:10185000BB60BA687B685A61BB690433BB61BB6912
:1018600018462837BD4680BD80B483B000AF78608D
:10187000034B18460C37BD465DF8047B704700BF2C
:10188000F003010880B483B000AF7860034B1846C2
:101890000C37BD465DF8047B704700BF0C0401089F
:1018A00080B582B000AF78607B681846FFF734FDE2
:1018B000064A7B681A607B6800221A717B68044ABA
:1018C0009A607B6818460837BD4680BD2809010824
:1018D000EC03010880B584B000AF78603960002364
:1018E000FB60FB683A6813447A6812791A70FB68E7
:1018F0000133FB607B689B681846FEF7B9FCB86053
:10190000FB683A681344B968184605F03BFAFB686F
:101910000433FB60FB683A68D0187B689B68BA6840
:1019200019460CF08CFEFA68BB681344FB60FB6838
:1019300018461037BD4680BD80B586B000AF7860D0
:10194000396000233B613B693A6813441A787B682D
:101950001A713B6901333B613B693A681A4407F1EC
:101960000C031146184605F02CFA3B6904333B6121
:101970003B697B610BE03A687B691A447B69013BF8
:1019800039680B4412781A707B6901337B613A69BC
:10199000FB6813447A699A42EDD33A69FB681344B1
:1019A000013B3A68134400221A703B69013B3A68D4
:1019B0001A447B689A603A69FB6813443B613B694F
:1019C00018461837BD4680BD80B483B000AF78603C
:1019D000034B18460C37BD465DF8047B704700BFCB
:1019E0003004010880B483B000AF7860034B184620
:1019F0000C37BD465DF8047B704700BF4404010806
:101A000080B582B000AF78607B681846FFF784FC31
:101A1000114A7B681A607B6800225A607B6800224A
:101A20009A607B680022DA607B6800221A617B681A
:101A30004FF000025A617B6800229A617B680022A5
:101A4000DA617B6800221A627B6800225A627B6836
:101A500018460837BD4680BD1009010880B58AB018
:101A600000AF7860396000237B627B6859687B6ACD
:101A70003A681344CAB21A707B685B68190A7B6AB9
:101A800001333A681344CAB21A707B685B68190C58
:101A90007B6A02333A681344CAB21A707B685B6887
:101AA000190E7B6A03333A681344CAB21A707B6A10
:101AB00004337B6200233B622AE07B68DA683B6A7E
:101AC0009B0013441B683B6139697B6A3A68134485
:101AD000CAB21A703B69190A7B6A01333A68134427
:101AE000CAB21A703B69190C7B6A02333A68134414
:101AF000CAB21A703B69190E7B6A03333A68134401
:101B0000CAB21A707B6A04337B623B6A01333B6260
:101B10007B685B683A6A9A42CFD37B6819697B6AB3
:101B20003A681344CAB21A707B681B69190A7B6A47
:101B300001333A681344CAB21A707B681B69190CE6
:101B40007B6A02333A681344CAB21A707B681B6915
:101B5000190E7B6A03333A681344CAB21A707B6A5F
:101B600004337B620023FB612AE07B689A69FB698E
:101B70009B0013441B68FB60F9687B6A3A68134456
:101B8000CAB21A70FB68190A7B6A01333A681344B7
:101B9000CAB21A70FB68190C7B6A02333A681344A4
:101BA000CAB21A70FB68190E7B6A03333A68134491
:101BB000CAB21A707B6A04337B62FB690133FB6132
:101BC0007B681B69FA699A42CFD37B68D9697B6AC3
:101BD0003A681344CAB21A707B68DB69190A7B6AD7
:101BE00001333A681344CAB21A707B68DB69190C76
:101BF0007B6A02333A681344CAB21A707B68DB69A5
:101C0000190E7B6A03333A681344CAB21A707B6AAE
:101C100004337B620023BB6127E07B685A6ABB699F
:101C20009B0013441B681846FEF722FB78617B6A11
:101C30003A6813447969184605F0A4F87B6A0433BE
:101C40007B627B6A3A68D0187B685A6ABB699B00E2
:101C500013441B687A6919460CF0F1FC7A6A7B69B7
:101C600013447B62BB690133BB617B68DB69BA6982
:101C70009A42D2D37B6A18462837BD4680BD80B5CC
:101C80008EB000AF7860396000237B637B6B3A686D
:101C900013441B783B627B6B01333A6813441B7817
:101CA0001B023A6A13433B627B6B02333A6813446C
:101CB0001B781B043A6A13433B627B6B03333A681D
:101CC00013441B781B063A6A13433B627B6B043355
:101CD0007B637B685B683A6A9A420AD97B68DA68F8
:101CE0003B6A9B00194610460BF098FE02467B6843
:101CF000DA607B683A6A5A6000233B6335E0002370
:101D00007B617B697A6B39680A44127813437B6183
:101D10007A697B6B013339680B441B781B021343D0
:101D20007B617A697B6B023339680B441B781B0437
:101D300013437B617A697B6B033339680B441B78EF
:101D40001B0613437B617A697B689A607B6B043363
:101D50007B637B68DA683B6B9B0013447A680832CC
:101D600012681A603B6B01333B637B685B683A6BBC
:101D70009A42C4D37B6B3A6813441B78FB617B6B3C
:101D800001333A6813441B781B02FA691343FB6161
:101D90007B6B02333A6813441B781B04FA691343C4
:101DA000FB617B6B03333A6813441B781B06FA69AB
:101DB0001343FB617B6B04337B637B681B69FA69AC
:101DC0009A420AD97B689A69FB699B0019461046BA
:101DD0000BF024FE02467B689A617B68FA691A61FF
:101DE0000023FB6235E000233B613B697A6B396875
:101DF0000A44127813433B613A697B6B01333968BB
:101E00000B441B781B0213433B613A697B6B023323
:101E100039680B441B781B0413433B613A697B6BA5
:101E2000033339680B441B781B0613433B613A6943
:101E30007B685A617B6B04337B637B689A69FB6ABE
:101E40009B0013447A68143212681A60FB6A0133EB
:101E5000FB627B681B69FA6A9A42C4D37B6B3A685F
:101E600013441B78BB617B6B01333A6813441B78C6
:101E70001B02BA691343BB617B6B02333A6813449C
:101E80001B781B04BA691343BB617B6B03333A684D
:101E900013441B781B06BA691343BB617B6B043385
:101EA0007B637B68DB69BA699A420AD97B685A6AA4
:101EB000BB699B00194610460BF0B0FD02467B68DB
:101EC0005A627B68BA69DA610023BB623EE07B6BD1
:101ED0003A681A4407F10C031146184604F071FFE2
:101EE0007B6B04337B637B6B7B620BE03A687B6AC2
:101EF0001A447B6A013B39680B4412781A707B6A7A
:101F000001337B627A6BFB6813447A6A9A42EDD3A1
:101F10007A6BFB681344013B3A68134400221A7041
:101F20007B6B013B3A681A447B681A627A6BFB68E8
:101F300013447B637B685A6ABB6A9B0013447A68CC
:101F4000203212681A60BB6A0133BB627B68DB69AE
:101F5000BA6A9A42BBD37B6B18463837BD4680BD00
:101F600080B483B000AF7860034B18460C37BD4691
:101F70005DF8047B704700BF7C07010880B483B024
:101F800000AF7860034B18460C37BD465DF8047B04
:101F9000704700BF6804010880B485B000AFF860E6
:101FA000B9607A603B60FB68BA681A60FB687A685F
:101FB0005A60FB683A681A61FB6818461437BD46D8
:101FC0005DF8047B704780B582B000AF78603960FF
:101FD0007B68D8687B68DB681B681B687A689168D7
:101FE0003A689847034618460837BD4680BD80B416
:101FF00083B000AF78607B681B6918460C37BD461C
:102000005DF8047B704780B483B000AF78607B6874
:102010001B68DB6B1B685B68C3F50053C3F30C03E1
:1020200018460C37BD465DF8047B704780B483B01A
:1020300000AF78607B680D4A1A607B6803F5005337
:102040001A46002353607B6803F580431A46002339
:1020500093607B6803F580431A460023D3607B6856
:1020600018460C37BD465DF8047B70477089002028
:1020700080B582B000AF7860786800F004F800BFE7
:102080000837BD4680BD80B582B000AF78607B6800
:1020900018687B6804334FF40052194609F058FD64
:1020A00000BF0837BD4680BD90B585B000AF7860F1
:1020B0004FF0FF33FB607B6803F500535C68786882
:1020C000FFF7A1FF03469C4214BF01230023DBB2AC
:1020D000002B16D07B6803F500535B685A1C7968A7
:1020E00001F500514A607A6813441B79FB607B68F4
:1020F00003F500535B68C3F30C037A6802F50052E2
:102100005360FB6818461437BD4690BD80B584B057
:1021100000AF78607B681B6893F84130DBB2202BFE
:1021200008D12D4B1B7883F00103DBB2002B01D0CB
:10213000012300E00023002B4AD0274B01221A7014
:102140007B6803F580439A687B6803F58043DB680E
:102150009A423AD07B6803F58043DA687B6803F5DE
:1021600080439B689A420CD27B6803F580439B684E
:102170009AB27B6803F58043DB689BB2D31A9BB2AB
:1021800007E07B6803F58043DB689BB2C3F500532F
:102190009BB2FB817B6818687B6803F58043DB6832
:1021A00003F5005308337A681344FA89194609F095
:1021B00053FC7B6803F58043DA68FB891344C3F35F
:1021C0000C037A6802F58042D360034B00221A7038
:1021D00000BF1037BD4680BD4802002080B586B0E4
:1021E00000AFF860B9607A607B687B617B69B3F5AA
:1021F000005FA8BF4FF400537B61FB6803F5804389
:102200009B68C3F500527B69934228BF13463B612C
:10221000FB6803F580439B6803F500530833FA68B5
:1022200013443A69B96818460CF009FAFB6803F5DB
:1022300080439A687B691344C3F30C03FA6802F580
:10224000804293607A693B699A420DD0FB6803F53E
:10225000005308333A69B968881879693A698A1A63
:10226000014618460CF0EBF9F868FFF74FFF00BF86
:102270001837BD4680BD80B582B000AF786006F0EB
:1022800045FA034618460837BD4680BD80B582B082
:1022900000AF78607B681846FFF73EF8094A7B6814
:1022A0001A607B6800225A607B6808331846FFF783
:1022B00021F87B68044A1A617B6818460837BD46D6
:1022C00080BD00BFCC080108EC03010880B584B0D4
:1022D00000AF786039600023FB607B685968FB6859
:1022E0003A681344CAB21A707B685B68190AFB68C3
:1022F00001333A681344CAB21A707B685B68190CE0
:10230000FB6802333A681344CAB21A707B685B6890
:10231000190EFB6803333A681344CAB21A70FB689B
:102320000433FB607B689968FB683A681344CAB25F
:102330001A707B689B68190AFB6801333A6813447A
:10234000CAB21A707B689B68190CFB6802333A6842
:102350001344CAB21A707B689B68190EFB6803337A
:102360003A681344CAB21A70FB680433FB607B6896
:10237000D968FB683A681344CAB21A707B68DB6894
:10238000190AFB6801333A681344CAB21A707B68B1
:10239000DB68190CFB6802333A681344CAB21A703E
:1023A0007B68DB68190EFB6803333A681344CAB2D2
:1023B0001A70FB680433FB607B681B691846FDF7E5
:1023C00057FFB860FB683A681344B968184604F0D0
:1023D000D9FCFB680433FB60FB683A68D0187B6863
:1023E0001B69BA6819460CF02AF9FA68BB681344ED
:1023F000FB60FB6818461037BD4680BD80B586B0CF
:1024000000AF7860396000233B613B693A68134450
:102410001B781A467B685A607B685A683B690133AF
:1024200039680B441B781B021A437B685A607B682F
:102430005A683B69023339680B441B781B041A4302
:102440007B685A607B685A683B69033339680B4480
:102450001B781B061A437B685A603B6904333B6157
:102460003B693A6813441B781A467B689A607B681C
:102470009A683B69013339680B441B781B021A4385
:102480007B689A607B689A683B69023339680B44C1
:102490001B781B041A437B689A607B689A683B69C7
:1024A000033339680B441B781B061A437B689A6018
:1024B0003B6904333B613B693A6813441B781A4615
:1024C0007B68DA607B68DA683B69013339680B4402
:1024D0001B781B021A437B68DA607B68DA683B6909
:1024E000023339680B441B781B041A437B68DA609B
:1024F0007B68DA683B69033339680B441B781B0639
:102500001A437B68DA603B6904333B613B693A6894
:102510001A4407F10C031146184604F052FC3B69BB
:1025200004333B613B697B610BE03A687B691A4489
:102530007B69013B39680B4412781A707B6901335F
:102540007B613A69FB6813447A699A42EDD33A6930
:10255000FB681344013B3A68134400221A703B693C
:10256000013B3A681A447B681A613A69FB68134474
:102570003B613B6918461837BD4680BD80B483B0C7
:1025800000AF7860034B18460C37BD465DF8047BFE
:10259000704700BF8C04010880B483B000AF78603E
:1025A000034B18460C37BD465DF8047B704700BFEF
:1025B0009C04010880B582B000AF78607B68184643
:1025C000FEF7AAFE114A7B681A6079684FF0000294
:1025D0004FF00003C1E9022379684FF000024FF089
:1025E0000003C1E9042379684FF000024FF00003B3
:1025F000C1E9062379684FF000024FF00003C1E9FA
:1026000008237B6818460837BD4680BDB40801081A
:1026100080B48DB000AF786039600023FB627B68C6
:10262000D3E90223C7E90823D7E90823F96A386800
:102630000144D3B20B70D7E908014FF000024FF00C
:102640000003020A42EA01620B0AF96A01313868A2
:102650000144D3B20B70D7E908014FF000024FF0EC
:102660000003020C42EA01420B0CF96A023138689D
:102670000144D3B20B70D7E908014FF000024FF0CC
:102680000003020E42EA01220B0EF96A0331386898
:102690000144D3B20B70D7E908014FF000024FF0AC
:1026A00000030A000023F96A043138680144D3B2F8
:1026B0000B70D7E908014FF000024FF000030A0A3F
:1026C0000023F96A053138680144D3B20B70D7E9A9
:1026D00008014FF000024FF000030A0C0023F96AD2
:1026E000063138680144D3B20B70D7E908014FF0C6
:1026F00000024FF000030A0E0023F96A0731386820
:102700000144D3B20B70FB6A0833FB627B68D3E9E8
:102710000423C7E90623D7E90623F96A3868014488
:10272000D3B20B70D7E906014FF000024FF000035F
:10273000020A42EA01620B0AF96A0131386801446F
:10274000D3B20B70D7E906014FF000024FF000033F
:10275000020C42EA01420B0CF96A0231386801446A
:10276000D3B20B70D7E906014FF000024FF000031F
:10277000020E42EA01220B0EF96A03313868014465
:10278000D3B20B70D7E906014FF000024FF00003FF
:102790000A000023F96A043138680144D3B20B708F
:1027A000D7E906014FF000024FF000030A0A0023A8
:1027B000F96A053138680144D3B20B70D7E90601D4
:1027C0004FF000024FF000030A0C0023F96A0631B3
:1027D00038680144D3B20B70D7E906014FF000020C
:1027E0004FF000030A0E0023F96A073138680144EC
:1027F000D3B20B70FB6A0833FB627B68D3E9062314
:10280000C7E90423D7E90423F96A38680144D3B23D
:102810000B70D7E904014FF000024FF00003020AE9
:1028200042EA01620B0AF96A013138680144D3B205
:102830000B70D7E904014FF000024FF00003020CC7
:1028400042EA01420B0CF96A023138680144D3B202
:102850000B70D7E904014FF000024FF00003020EA5
:1028600042EA01220B0EF96A033138680144D3B2FF
:102870000B70D7E904014FF000024FF000030A008B
:102880000023F96A043138680144D3B20B70D7E9E8
:1028900004014FF000024FF000030A0A0023F96A16
:1028A000053138680144D3B20B70D7E904014FF009
:1028B00000024FF000030A0C0023F96A0631386861
:1028C0000144D3B20B70D7E904014FF000024FF07E
:1028D00000030A0E0023F96A073138680144D3B2B5
:1028E0000B70FB6A0833FB627B68D3E90823C7E9F6
:1028F0000223D7E90223F96A38680144D3B20B7086
:10290000D7E902014FF000024FF00003020A42EA49
:1029100001620B0AF96A013138680144D3B20B70C5
:10292000D7E902014FF000024FF00003020C42EA27
:1029300001420B0CF96A023138680144D3B20B70C2
:10294000D7E902014FF000024FF00003020E42EA05
:1029500001220B0EF96A033138680144D3B20B70BF
:10296000D7E902014FF000024FF000030A000023F4
:10297000F96A043138680144D3B20B70D7E9020117
:102980004FF000024FF000030A0A0023F96A0531F4
:1029900038680144D3B20B70D7E902014FF000024E
:1029A0004FF000030A0C0023F96A0631386801442D
:1029B000D3B20B70D7E902014FF000024FF00003D1
:1029C0000A0E0023F96A073138680144D3B20B704C
:1029D000FB6A0833FB62FB6A18463437BD465DF874
:1029E000047B70472DE9B00FADF50F7D00AFC7F840
:1029F0000C02C7F808120023C7F834324FF0000267
:102A00004FF00003C7E98A23D7E98A01D7F83422B7
:102A1000D7F8083213441B78DBB200221C46154657
:102A200040EA040841EA0509C7E98A89D7E98A0129
:102A3000D7F834325A1CD7F8083213441B78DBB26B
:102A400000229A4693464FF000024FF000034FEAEF
:102A50000B2343EA1A634FEA0A2240EA0204C7F84A
:102A600000420B43C7F80432D7E98034C7E98A34FF
:102A7000D7E98A01D7F834329A1CD7F808321344C0
:102A80001B78DBB20022C7F8F831C7F8FC214FF001
:102A900000024FF00003D7E97E894C4623044446E8
:102AA00043EA14434446220440EA0204C7F8F041D2
:102AB0000B43C7F8F431D7E97C34C7E98A34D7E946
:102AC0008A01D7F83432DA1CD7F8083213441B785D
:102AD000DBB20022C7F8E831C7F8EC21D7E97A4524
:102AE00023461B0AC7F8E43123461B06C7F8E0312A
:102AF000D7E9784523460343C7F8D8312B460B4323
:102B0000C7F8DC31D7E97634C7E98A34D7E98A01D6
:102B1000D7F834321A1DD7F8083213441B78DBB2C9
:102B20000022C7F8D031C7F8D4214FF000024FF08F
:102B30000003D7F8D0412300002240EA0204C7F87E
:102B4000C8410B43C7F8CC31D7E97234C7E98A349E
:102B5000D7E98A01D7F834325A1DD7F8083213441E
:102B60001B78DBB20022C7F8C031C7F8C4214FF090
:102B700000024FF00003D7F8C0412302002240EAD0
:102B80000204C7F8B8410B43C7F8BC31D7E96E342B
:102B9000C7E98A34D7E98A01D7F834329A1DD7F8C1
:102BA000083213441B78DBB20022C7F8B031C7F8F3
:102BB000B4214FF000024FF00003D7F8B0412304D6
:102BC000002240EA0204C7F8A8410B43C7F8AC3121
:102BD000D7E96A34C7E98A34D7E98A01D7F83432A9
:102BE000DA1DD7F8083213441B78DBB20022C7F88D
:102BF000A031C7F8A4214FF000024FF00003D7F82E
:102C0000A0412306002240EA0204C7F898410B4382
:102C1000C7F89C31D7E96634C7E98A34D7E98A0115
:102C2000D7F80C32C3E90201D7F834320833C7F8B9
:102C300034324FF000024FF00003C7E98823D7E990
:102C40008801D7F83422D7F8083213441B78DBB256
:102C50000022C7F89031C7F89421D7E9644523468C
:102C60000343C7F888312B460B43C7F88C31D7E9AB
:102C70006234C7E98834D7E98801D7F834325A1C5E
:102C8000D7F8083213441B78DBB20022C7F8803132
:102C9000C7F884214FF000024FF00003D7E96089A4
:102CA0004C462302444643EA14634446220240EA67
:102CB0000204C7F878410B43C7F87C31D7E95E348A
:102CC000C7E98834D7E98801D7F834329A1CD7F895
:102CD000083213441B78DBB20022C7F87031C7F802
:102CE00074214FF000024FF00003D7E95C894C4695
:102CF0002304444643EA14434446220440EA0204BF
:102D0000C7F868410B43C7F86C31D7E95A34C7E9B3
:102D10008834D7E98801D7F83432DA1CD7F808327A
:102D200013441B78DBB20022C7F86031C7F8642176
:102D3000D7E9584523461B0AC7F85C3123461B06D2
:102D4000C7F85831D7E9564523460343C7F85031F1
:102D50002B460B43C7F85431D7E95434C7E98834BC
:102D6000D7E98801D7F834321A1DD7F8083213444E
:102D70001B78DBB20022C7F84831C7F84C214FF06E
:102D800000024FF00003D7F848412300002240EA38
:102D90000204C7F840410B43C7F84431D7E9503427
:102DA000C7E98834D7E98801D7F834325A1DD7F8F3
:102DB000083213441B78DBB20022C7F83831C7F859
:102DC0003C214FF000024FF00003D7F838412302B6
:102DD000002240EA0204C7F830410B43C7F83431FF
:102DE000D7E94C34C7E98834D7E98801D7F83432B9
:102DF0009A1DD7F8083213441B78DBB20022C7F8BB
:102E00002831C7F82C214FF000024FF00003D7F80B
:102E100028412304002240EA0204C7F820410B4362
:102E2000C7F82431D7E94834C7E98834D7E988019D
:102E3000D7F83432DA1DD7F8083213441B78DBB2E6
:102E40000022C7F81831C7F81C214FF000024FF0DC
:102E50000003D7F818412306002240EA0204C7F80D
:102E600010410B43C7F81431D7E94434C7E988341B
:102E7000D7E98801D7F80C32C3E90401D7F8343216
:102E80000833C7F834324FF000024FF00003C7E9AF
:102E90008623D7E98601D7F83422D7F808321344BD
:102EA0001B78DBB20022C7F80831C7F80C21D7E93C
:102EB000424523460343C7F800312B460B43C7F86E
:102EC0000431D7E94034C7E98634D7E98601D7F819
:102ED00034325A1CD7F8083213441B78DBB2002274
:102EE000C7F8F830C7F8FC204FF000024FF000039D
:102EF000D7E93E894C462302444643EA14634446DC
:102F0000220240EA0204C7F8F0400B43C7F8F4304D
:102F1000D7E93C34C7E98634D7E98601D7F834329B
:102F20009A1CD7F8083213441B78DBB20022C7F88A
:102F3000E830C7F8EC204FF000024FF00003D7E96B
:102F40003A894C462304444643EA14434446220447
:102F500040EA0204C7F8E0400B43C7F8E430D7E981
:102F60003834C7E98634D7E98601D7F83432DA1C19
:102F7000D7F8083213441B78DBB20022C7F8D830E8
:102F8000C7F8DC20D7E9364523461B0AC7F8D430FA
:102F900023461B06C7F8D030D7E934452346034300
:102FA000C7F8C8302B460B43C7F8CC30D7E93234CA
:102FB000C7E98634D7E98601D7F834321A1DD7F825
:102FC000083213441B78DBB20022C7F8C030C7F8C0
:102FD000C4204FF000024FF00003D7F8C040230098
:102FE000002240EA0204C7F8B8400B43C7F8BC30DF
:102FF000D7E92E34C7E98634D7E98601D7F83432C9
:103000005A1DD7F8083213441B78DBB20022C7F8E8
:10301000B030C7F8B4204FF000024FF00003D7F8EB
:10302000B0402302002240EA0204C7F8A8400B4344
:10303000C7F8AC30D7E92A34C7E98634D7E9860126
:10304000D7F834329A1DD7F8083213441B78DBB214
:103050000022C7F8A030C7F8A4204FF000024FF0BC
:103060000003D7F8A0402304002240EA0204C7F876
:1030700098400B43C7F89C30D7E92634C7E986341B
:10308000D7E98601D7F83432DA1DD7F8083213446D
:103090001B78DBB20022C7F89030C7F894204FF0BD
:1030A00000024FF00003D7F890402306002240EAC8
:1030B0000204C7F888400B43C7F88C30D7E92234A4
:1030C000C7E98634D7E98601D7F80C32C3E906018F
:1030D000D7F834320833C7F834324FF000024FF0DB
:1030E0000003C7E98423D7E98401D7F83422D7F84D
:1030F000083213441B78DBB20022C7F88030C7F8CF
:103100008420D7E9204523460343BB672B460B4366
:10311000FB67D7E91E34C7E98434D7E98401D7F8BF
:1031200034325A1CD7F8083213441B78DBB2002221
:103130003B677A674FF000024FF00003D7E91C8924
:103140004C462302444643EA14634446220240EAC2
:103150000204BC660B43FB66D7E91A34C7E9843422
:10316000D7E98401D7F834329A1CD7F808321344CF
:103170001B78DBB200223B667A664FF000024FF00C
:103180000003D7E918894C462304444643EA144314
:103190004446220440EA0204BC650B43FB65D7E9C0
:1031A0001634C7E98434D7E98401D7F83432DA1CFD
:1031B000D7F8083213441B78DBB200223B657A65EE
:1031C000D7E9144523461B0AFB6423461B06BB6450
:1031D000D7E91245234603433B642B460B437B64EC
:1031E000D7E91034C7E98434D7E98401D7F83432F9
:1031F0001A1DD7F8083213441B78DBB20022BB63D8
:10320000FA634FF000024FF00003BC6B2300002272
:1032100040EA02043C630B437B63D7E90C34C7E903
:103220008434D7E98401D7F834325A1DD7F80832EC
:1032300013441B78DBB20022BB62FA624FF000023B
:103240004FF00003BC6A2302002240EA02043C6201
:103250000B437B62D7E90834C7E98434D7E984019A
:10326000D7F834320633D7F8082213441B78DBB280
:103270000022BB61FA614FF000024FF00003BC690D
:103280002304002240EA02043C610B437B61D7E93E
:103290000434C7E98434D7E98401D7F834320733DA
:1032A000D7F8082213441B78DBB20022BB60FA6017
:1032B0004FF000024FF00003BC682306002240EAF2
:1032C00002043C600B437B60D7E90034C7E98434D7
:1032D000D7E98423D7F80C12C1E90823D7F8343290
:1032E0000833C7F83432D7F83432184607F50F7769
:1032F000BD46BDE8B00F704780B483B000AF7860C2
:10330000034B18460C37BD465DF8047B704700BF81
:10331000C004010880B483B000AF7860034B184646
:103320000C37BD465DF8047B704700BFDC04010824
:1033300080B582B000AF78607B681846FDF7ECFF7F
:103340000E4A7B681A6079684FF000024FF0000364
:10335000C1E9022379684FF000024FF00003C1E990
:10336000042379684FF000024FF00003C1E90623FF
:103370007B6818460837BD4680BD00BF9C08010821
:1033800080B48BB000AF7860396000237B627B68CB
:10339000D3E90223C7E90623D7E90623796A386807
:1033A0000144D3B20B70D7E906014FF000024FF091
:1033B0000003020A42EA01620B0A796A01313868A5
:1033C0000144D3B20B70D7E906014FF000024FF071
:1033D0000003020C42EA01420B0C796A02313868A0
:1033E0000144D3B20B70D7E906014FF000024FF051
:1033F0000003020E42EA01220B0E796A033138689B
:103400000144D3B20B70D7E906014FF000024FF030
:1034100000030A000023796A043138680144D3B2FA
:103420000B70D7E906014FF000024FF000030A0AC3
:103430000023796A053138680144D3B20B70D7E9AB
:1034400006014FF000024FF000030A0C0023796AD6
:10345000063138680144D3B20B70D7E906014FF04A
:1034600000024FF000030A0E0023796A0731386822
:103470000144D3B20B707B6A08337B627B68D3E96B
:103480000423C7E90423D7E90423796A386801448F
:10349000D3B20B70D7E904014FF000024FF00003E4
:1034A000020A42EA01620B0A796A01313868014472
:1034B000D3B20B70D7E904014FF000024FF00003C4
:1034C000020C42EA01420B0C796A0231386801446D
:1034D000D3B20B70D7E904014FF000024FF00003A4
:1034E000020E42EA01220B0E796A03313868014468
:1034F000D3B20B70D7E904014FF000024FF0000384
:103500000A000023796A043138680144D3B20B7091
:10351000D7E904014FF000024FF000030A0A00232C
:10352000796A053138680144D3B20B70D7E90401D8
:103530004FF000024FF000030A0C0023796A0631B5
:1035400038680144D3B20B70D7E904014FF0000290
:103550004FF000030A0E0023796A073138680144EE
:10356000D3B20B707B6A08337B627B68D3E9062396
:10357000C7E90223D7E90223796A38680144D3B244
:103580000B70D7E902014FF000024FF00003020A6E
:1035900042EA01620B0A796A013138680144D3B208
:1035A0000B70D7E902014FF000024FF00003020C4C
:1035B00042EA01420B0C796A023138680144D3B205
:1035C0000B70D7E902014FF000024FF00003020E2A
:1035D00042EA01220B0E796A033138680144D3B202
:1035E0000B70D7E902014FF000024FF000030A0010
:1035F0000023796A043138680144D3B20B70D7E9EB
:1036000002014FF000024FF000030A0A0023796A1A
:10361000053138680144D3B20B70D7E902014FF08D
:1036200000024FF000030A0C0023796A0631386863
:103630000144D3B20B70D7E902014FF000024FF002
:1036400000030A0E0023796A073138680144D3B2B7
:103650000B707B6A08337B627B6A18462C37BD4649
:103660005DF8047B70472DE9B00FEBB000AFC7F8F1
:103670008401C7F880110023C7F8A4314FF000027D
:103680004FF00003C7E96623D7E96601D7F8A42104
:10369000D7F8803113441B78DBB200221C46154654
:1036A00040EA040841EA0509C7E96689D7E96601E5
:1036B000D7F8A4315A1CD7F8803113441B78DBB2F9
:1036C00000229A4693464FF000024FF000034FEA63
:1036D0000B2343EA1A634FEA0A2240EA0204C7F8BE
:1036E00078410B43C7F87C31D7E95E34C7E96634CB
:1036F000D7E96601D7F8A4319A1CD7F88031134472
:103700001B78DBB20022C7F87031C7F874214FF084
:1037100000024FF00003D7E95C894C46230444467D
:1037200043EA14434446220440EA0204C7F86841CD
:103730000B43C7F86C31D7E95A34C7E96634D7E987
:103740006601D7F8A431DA1CD7F8803113441B780E
:10375000DBB20022C7F86031C7F86421D7E95845C9
:1037600023461B0AC7F85C3123461B06C7F85831AD
:10377000D7E9564523460343C7F850312B460B4340
:10378000C7F85431D7E95434C7E96634D7E966013C
:10379000D7F8A4311A1DD7F8803113441B78DBB257
:1037A0000022C7F84831C7F84C214FF000024FF013
:1037B0000003D7F848412300002240EA0204C7F87A
:1037C00040410B43C7F84431D7E95034C7E9663468
:1037D000D7E96601D7F8A4315A1DD7F880311344D0
:1037E0001B78DBB20022C7F83831C7F83C214FF014
:1037F00000024FF00003D7F838412302002240EACC
:103800000204C7F830410B43C7F83431D7E94C34D0
:10381000C7E96634D7E96601D7F8A4319A1DD7F80D
:10382000803113441B78DBB20022C7F82831C7F877
:103830002C214FF000024FF00003D7F82841230459
:10384000002240EA0204C7F820410B43C7F82431A4
:10385000D7E94834C7E96634D7E96601D7F8A43117
:10386000DA1DD7F8803113441B78DBB20022C7F889
:103870001831C7F81C214FF000024FF00003D7F8B1
:1038800018412306002240EA0204C7F810410B4306
:10389000C7F81431D7E94434C7E96634D7E966017B
:1038A000D7F88431C3E90201D7F8A4310833C7F847
:1038B000A4314FF000024FF00003C7E96423D7E9B9
:1038C0006401D7F8A421D7F8803113441B78DBB208
:1038D0000022C7F80831C7F80C21D7E94245234632
:1038E0000343C7F800312B460B43C7F80431D7E92F
:1038F0004034C7E96434D7E96401D7F8A4315A1CCD
:10390000D7F8803113441B78DBB20022C7F8F830B7
:10391000C7F8FC204FF000024FF00003D7E93E89C2
:103920004C462302444643EA14634446220240EADA
:103930000204C7F8F0400B43C7F8F430D7E93C3431
:10394000C7E96434D7E96401D7F8A4319A1CD7F8E1
:10395000803113441B78DBB20022C7F8E830C7F887
:10396000EC204FF000024FF00003D7E93A894C46B3
:103970002304444643EA14434446220440EA020432
:10398000C7F8E0400B43C7F8E430D7E93834C7E95B
:103990006434D7E96401D7F8A431DA1CD7F8803150
:1039A00013441B78DBB20022C7F8D830C7F8DC20FC
:1039B000D7E9364523461B0AC7F8D43023461B06F1
:1039C000C7F8D030D7E9344523460343C7F8C83099
:1039D0002B460B43C7F8CC30D7E93234C7E96434FF
:1039E000D7E96401D7F8A4311A1DD7F88031134400
:1039F0001B78DBB20022C7F8C030C7F8C4204FF0F4
:103A000000024FF00003D7F8C0402300002240EA34
:103A10000204C7F8B8400B43C7F8BC30D7E92E34CE
:103A2000C7E96434D7E96401D7F8A4315A1DD7F83F
:103A3000803113441B78DBB20022C7F8B030C7F8DE
:103A4000B4204FF000024FF00003D7F8B04023023B
:103A5000002240EA0204C7F8A8400B43C7F8AC3084
:103A6000D7E92A34C7E96434D7E96401D7F8A43127
:103A70009A1DD7F8803113441B78DBB20022C7F8B7
:103A8000A030C7F8A4204FF000024FF00003D7F891
:103A9000A0402304002240EA0204C7F898400B43E8
:103AA000C7F89C30D7E92634C7E96434D7E9640104
:103AB000D7F8A431DA1DD7F8803113441B78DBB274
:103AC0000022C7F89030C7F894204FF000024FF062
:103AD0000003D7F890402306002240EA0204C7F80A
:103AE00088400B43C7F88C30D7E92234C7E96434E7
:103AF000D7E96401D7F88431C3E90401D7F8A431C8
:103B00000833C7F8A4314FF000024FF00003C7E9B3
:103B10006223D7E96201D7F8A421D7F88031134492
:103B20001B78DBB20022C7F88030C7F88420D7E9C1
:103B3000204523460343BB672B460B43FB67D7E96E
:103B40001E34C7E96234D7E96201D7F8A4315A1CA0
:103B5000D7F8803113441B78DBB200223B677A67C9
:103B60004FF000024FF00003D7E91C894C462302B6
:103B7000444643EA14634446220240EA0204BC6617
:103B80000B43FB66D7E91A34C7E96234D7E962010F
:103B9000D7F8A4319A1CD7F8803113441B78DBB2D4
:103BA00000223B667A664FF000024FF00003D7E92F
:103BB00018894C462304444643EA144344462204ED
:103BC00040EA0204BC650B43FB65D7E91634C7E93C
:103BD0006234D7E96201D7F8A431DA1CD7F8803112
:103BE00013441B78DBB200223B657A65D7E91445A4
:103BF00023461B0AFB6423461B06BB64D7E9124518
:103C0000234603433B642B460B437B64D7E91034C4
:103C1000C7E96234D7E96201D7F8A4311A1DD7F891
:103C2000803113441B78DBB20022BB63FA634FF090
:103C300000024FF00003BC6B2300002240EA0204A4
:103C40003C630B437B63D7E90C34C7E96234D7E9A3
:103C50006201D7F8A4315A1DD7F8803113441B787C
:103C6000DBB20022BB62FA624FF000024FF00003A9
:103C7000BC6A2302002240EA02043C620B437B62DE
:103C8000D7E90834C7E96234D7E96201D7F8A4312B
:103C90000633D7F8802113441B78DBB20022BB61C6
:103CA000FA614FF000024FF00003BC6923040022C8
:103CB00040EA02043C610B437B61D7E90434C7E965
:103CC0006234D7E96201D7F8A4310733D7F88021ED
:103CD00013441B78DBB20022BB60FA604FF0000295
:103CE0004FF00003BC682306002240EA02043C6057
:103CF0000B437B60D7E90034C7E96234D7E962231C
:103D0000D7F88411C1E90623D7F8A4310833C7F8DE
:103D1000A431D7F8A431184607F5D677BD46BDE8DB
:103D2000B00F704780B483B000AF7860034B184683
:103D30000C37BD465DF8047B704700BF00050108E5
:103D400080B483B000AF7860034B18460C37BD4693
:103D50005DF8047B704700BF1805010880B582B08C
:103D600000AF78607B681846FDF7D6FA244A7B6876
:103D70001A607B6804331846FEF788FA7B681833AC
:103D80001846FEF717FC7B6803F14002082307E0A2
:103D90004FF000004FF00001C2E90001013B083282
:103DA000002BF5DA7B6888331846FFF7C1FA7B6889
:103DB00003F1A802082307E04FF000004FF00001D4
:103DC000C2E90001013B0832002BF5DA7B68F033D1
:103DD0001846FFF7ADFA7B6803F58872082307E001
:103DE0004FF000004FF00001C2E90001013B083232
:103DF000002BF5DA7B6818460837BD4680BD00BF4A
:103E00008408010880B58CB000AF78603960002369
:103E1000FB627B68181DFB6A3A6813441946FEF77B
:103E200055FA0246FB6A1344FB627B6803F11800F3
:103E3000FB6A3A6813441946FEF7EAFB0246FB6A3E
:103E40001344FB620023BB627DE07A68BB6A0833DF
:103E5000DB001344D3E90023C7E90623D7E906238F
:103E6000F96A38680144D3B20B70D7E906014FF004
:103E700000024FF00003020A42EA01620B0AF96AEB
:103E8000013138680144D3B20B70D7E906014FF015
:103E900000024FF00003020C42EA01420B0CF96AE7
:103EA000023138680144D3B20B70D7E906014FF0F4
:103EB00000024FF00003020E42EA01220B0EF96AE3
:103EC000033138680144D3B20B70D7E906014FF0D3
:103ED00000024FF000030A000023F96A0431386839
:103EE0000144D3B20B70D7E906014FF000024FF046
:103EF00000030A0A0023F96A053138680144D3B285
:103F00000B70D7E906014FF000024FF000030A0CD6
:103F10000023F96A063138680144D3B20B70D7E93F
:103F200006014FF000024FF000030A0E0023F96A69
:103F3000073138680144D3B20B70FB6A0833FB6267
:103F4000BB6A0133BB62BB6A082B7FF67EAF7B681E
:103F500003F18800FB6A3A6813441946FFF710FA28
:103F60000246FB6A1344FB6200237B627DE07A68B1
:103F70007B6A1533DB001344D3E90023C7E904232C
:103F8000D7E90423F96A38680144D3B20B70D7E942
:103F900004014FF000024FF00003020A42EA0162FE
:103FA0000B0AF96A013138680144D3B20B70D7E9C2
:103FB00004014FF000024FF00003020C42EA0142FC
:103FC0000B0CF96A023138680144D3B20B70D7E99F
:103FD00004014FF000024FF00003020E42EA0122FA
:103FE0000B0EF96A033138680144D3B20B70D7E97C
:103FF00004014FF000024FF000030A000023F96AA9
:10400000043138680144D3B20B70D7E904014FF092
:1040100000024FF000030A0A0023F96A05313868EC
:104020000144D3B20B70D7E904014FF000024FF006
:1040300000030A0C0023F96A063138680144D3B240
:104040000B70D7E904014FF000024FF000030A0E95
:104050000023F96A073138680144D3B20B70FB6A58
:104060000833FB627B6A01337B627B6A082B7FF635
:104070007EAF7B6803F1F000FB6A3A68134419468F
:10408000FFF77EF90246FB6A1344FB6200233B62A2
:104090007DE07A683B6A2233DB001344D3E90023D6
:1040A000C7E90223D7E90223F96A38680144D3B289
:1040B0000B70D7E902014FF000024FF00003020A33
:1040C00042EA01620B0AF96A013138680144D3B24D
:1040D0000B70D7E902014FF000024FF00003020C11
:1040E00042EA01420B0CF96A023138680144D3B24A
:1040F0000B70D7E902014FF000024FF00003020EEF
:1041000042EA01220B0EF96A033138680144D3B246
:104110000B70D7E902014FF000024FF000030A00D4
:104120000023F96A043138680144D3B20B70D7E92F
:1041300002014FF000024FF000030A0A0023F96A5F
:10414000053138680144D3B20B70D7E902014FF052
:1041500000024FF000030A0C0023F96A06313868A8
:104160000144D3B20B70D7E902014FF000024FF0C7
:1041700000030A0E0023F96A073138680144D3B2FC
:104180000B70FB6A0833FB623B6A01333B623B6A9C
:10419000082B7FF67EAFFB6A18463037BD4680BDE0
:1041A0002DE9F04FEDB000AFC7F88401C7F88011DA
:1041B0000023C7F8AC31D7F88431181DD7F8AC21EB
:1041C000D7F8803113441946FEF718F90246D7F89C
:1041D000AC311344C7F8AC31D7F8843103F118007F
:1041E000D7F8AC21D7F8803113441946FEF7FAFB13
:1041F0000246D7F8AC311344C7F8AC310023C7F8F6
:10420000A83123E14FF000024FF00003C7E9662315
:10421000D7E96601D7F8AC21D7F8803113441B7871
:10422000DBB20022C7F87831C7F87C21D7F87831A3
:104230000343C7F86831D7F87C310B43C7F86C31BA
:10424000D7E95A23C7E96623D7E96601D7F8AC3125
:104250005A1CD7F8803113441B78DBB200229A46EF
:1042600093464FF000024FF000034FEA0B2343EA5E
:104270001A634FEA0A2240EA0206C7F860610B435C
:10428000C7F86431D7E95823C7E96623D7E966013F
:10429000D7F8AC319A1CD7F8803113441B78DBB2C5
:1042A0000022984691464FF000024FF000034FEA7B
:1042B000094343EA18434FEA084240EA0206C7F8B6
:1042C00058610B43C7F85C31D7E95623C7E9662329
:1042D000D7E96601D7F8AC31DA1CD7F8803113443E
:1042E0001B78DBB20022C7F87031C7F87421D7F809
:1042F00070311D0AD7F870311C0640EA0403C7F874
:10430000503141EA0503C7F85431D7E95423C7E9CE
:104310006623D7E96601D7F8AC311A1DD7F880318A
:1043200013441B78DBB20022C7F84831C7F84C2190
:104330004FF000024FF00003D7F84861330000222D
:1043400040EA0206C7F840610B43C7F84431D7E999
:104350005023C7E96623D7E96601D7F8AC315A1D67
:10436000D7F8803113441B78DBB20022C7F838310C
:10437000C7F83C214FF000024FF00003D7F8386136
:104380003302002240EA0206C7F830610B43C7F847
:104390003431D7E94C23C7E96623D7E96601D7F85A
:1043A000AC319A1DD7F8803113441B78DBB2002260
:1043B000C7F82831C7F82C214FF000024FF0000356
:1043C000D7F828613304002240EA0206C7F82061CA
:1043D0000B43C7F82431D7E94823C7E96623D7E957
:1043E0006601D7F8AC31DA1DD7F8803113441B7859
:1043F000DBB20022C7F81831C7F81C214FF00002C9
:104400004FF00003D7F818613306002240EA020695
:10441000C7F810610B43C7F81431D7E94423C7E943
:104420006623D7E96601D7F88421D7F8A831083385
:10443000DB001344C3E90001D7F8AC310833C7F8F7
:10444000AC31D7F8A8310133C7F8A831D7F8A83173
:10445000082B7FF6D7AED7F8843103F18800D7F860
:10446000AC21D7F8803113441946FFF7FCF8024617
:10447000D7F8AC311344C7F8AC310023C7F8A431E6
:1044800033E14FF000024FF00003C7E96423D7E99E
:104490006401D7F8AC21D7F8803113441B78DBB224
:1044A0000022C7F80831C7F80C21D7E94245234656
:1044B0000343C7F800312B460B43C7F80431D7E953
:1044C0004034C7E96434D7E96401D7F8AC315A1CE9
:1044D000D7F8803113441B78DBB20022C7F8F830DC
:1044E000C7F8FC204FF000024FF00003D7E93E561A
:1044F000344623022C4643EA14632C46220240EA47
:104500000204C7F8F0400B43C7F8F430D7E93C3455
:10451000C7E96434D7E96401D7F8AC319A1CD7F8FD
:10452000803113441B78DBB20022C7F8E830C7F8AB
:10453000EC204FF000024FF00003D7E93A56344622
:1045400023042C4643EA14432C46220440EA020486
:10455000C7F8E0400B43C7F8E430D7E93834C7E97F
:104560006434D7E96401D7F8AC31DA1CD7F880316C
:1045700013441B78DBB20022C7F8D830C7F8DC2020
:10458000D7E9364523461B0AC7F8D43023461B0615
:10459000C7F8D030D7E9344523460343C7F8C830BD
:1045A0002B460B43C7F8CC30D7E93234C7E9643423
:1045B000D7E96401D7F8AC311A1DD7F8803113441C
:1045C0001B78DBB20022C7F8C030C7F8C4204FF018
:1045D00000024FF00003D7F8C0402300002240EA59
:1045E0000204C7F8B8400B43C7F8BC30D7E92E34F3
:1045F000C7E96434D7E96401D7F8AC315A1DD7F85C
:10460000803113441B78DBB20022C7F8B030C7F802
:10461000B4204FF000024FF00003D7F8B04023025F
:10462000002240EA0204C7F8A8400B43C7F8AC30A8
:10463000D7E92A34C7E96434D7E96401D7F8AC3143
:104640009A1DD7F8803113441B78DBB20022C7F8DB
:10465000A030C7F8A4204FF000024FF00003D7F8B5
:10466000A0402304002240EA0204C7F898400B430C
:10467000C7F89C30D7E92634C7E96434D7E9640128
:10468000D7F8AC31DA1DD7F8803113441B78DBB290
:104690000022C7F89030C7F894204FF000024FF086
:1046A0000003D7F890402306002240EA0204C7F82E
:1046B00088400B43C7F88C30D7E92234C7E964340B
:1046C000D7E96401D7F88421D7F8A4311533DB008A
:1046D0001344C3E90001D7F8AC310833C7F8AC3153
:1046E000D7F8A4310133C7F8A431D7F8A431082B87
:1046F0007FF6C7AED7F8843103F1F000D7F8AC21CC
:10470000D7F8803113441946FEF7ADFF0246D7F8BB
:10471000AC311344C7F8AC310023C7F8A0310FE126
:104720004FF000024FF00003C7E96223D7E96201AE
:10473000D7F8AC21D7F8803113441B78DBB20022C4
:10474000C7F88030C7F88420D7E9204523460343C3
:10475000BB672B460B43FB67D7E91E34C7E96234BE
:10476000D7E96201D7F8AC315A1CD7F8803113442D
:104770001B78DBB200223B677A674FF000024FF0F4
:104780000003D7E91C56344623022C4643EA14633F
:104790002C46220240EA0204BC660B43FB66D7E9C2
:1047A0001A34C7E96234D7E96201D7F8AC319A1CF0
:1047B000D7F8803113441B78DBB200223B667A665F
:1047C0004FF000024FF00003D7E918563446230497
:1047D0002C4643EA14432C46220440EA0204BC65FA
:1047E0000B43FB65D7E91634C7E96234D7E96201A8
:1047F000D7F8AC31DA1CD7F8803113441B78DBB220
:1048000000223B657A65D7E9144523461B0AFB6401
:1048100023461B06BB64D7E91245234603433B648A
:104820002B460B437B64D7E91034C7E96234D7E9E0
:104830006201D7F8AC311A1DD7F8803113441B78C8
:10484000DBB20022BB63FA634FF000024FF00003BB
:10485000BC6B2300002240EA02043C630B437B63F1
:10486000D7E90C34C7E96234D7E96201D7F8AC3133
:104870005A1DD7F8803113441B78DBB20022BB628B
:10488000FA624FF000024FF00003BC6A23020022DC
:1048900040EA02043C620B437B62D7E90834C7E973
:1048A0006234D7E96201D7F8AC319A1DD7F880316C
:1048B00013441B78DBB20022BB61FA614FF00002A7
:1048C0004FF00003BC692304002240EA02043C616B
:1048D0000B437B61D7E90434C7E96234D7E962014D
:1048E000D7F8AC31DA1DD7F8803113441B78DBB22E
:1048F0000022BB60FA604FF000024FF00003BC687A
:104900002306002240EA02043C600B437B60D7E9A7
:104910000034C7E96234D7E96201D7F88421D7F8B7
:10492000A0312233DB001344C3E90001D7F8AC31D6
:104930000833C7F8AC31D7F8A0310133C7F8A0313C
:10494000D7F8A031082B7FF6EBAED7F8AC3118467C
:1049500007F5DA77BD46BDE8F08F000080B483B07C
:1049600000AF7860034B18460C37BD465DF8047BFA
:10497000704700BF3C05010880B483B000AF786089
:10498000034B18460C37BD465DF8047B704700BFEB
:104990004C05010880B582B000AF78607B6818468E
:1049A000FCF7BAFC084A7B681A607B680833184633
:1049B000FEF7BEFC7B6828331846FEF7B9FC7B681F
:1049C00018460837BD4680BD6C08010880B584B024
:1049D00000AF786039600023FB607B6803F108005A
:1049E000FB683A6813441946FEF7CAFC0246FB68A6
:1049F0001344FB607B6803F12800FB683A681344AA
:104A00001946FEF7BDFC0246FB681344FB60FB68D9
:104A100018461037BD4680BD80B584B000AF7860C1
:104A200039600023FB607B6803F10800FB683A688B
:104A300013441946FEF717FE0246FB681344FB6059
:104A40007B6803F12800FB683A6813441946FEF7B7
:104A50000AFE0246FB681344FB60FB6818461037E9
:104A6000BD4680BD80B483B000AF7860034B18466C
:104A70000C37BD465DF8047B704700BF7005010828
:104A800080B483B000AF7860034B18460C37BD4646
:104A90005DF8047B704700BF8405010880B582B0D3
:104AA00000AF78607B681846FCF736FC054A7B68E7
:104AB0001A607B684FF000025A607B68184608371E
:104AC000BD4680BD5408010880B485B000AF786051
:104AD00039600023FB607B685B68BB60B968FB687A
:104AE0003A681344CAB21A70BB68190AFB680133EA
:104AF0003A681344CAB21A70BB68190CFB680233D7
:104B00003A681344CAB21A70BB68190EFB680333C3
:104B10003A681344CAB21A70FB680433FB60FB683E
:104B200018461437BD465DF8047B704780B485B0E5
:104B300000AF786039600023FB600023BB60BB6876
:104B4000FA6839680A4412781343BB60BA68FB6894
:104B5000013339680B441B781B021343BB60BA68EE
:104B6000FB68023339680B441B781B041343BB609A
:104B7000BA68FB68033339680B441B781B06134380
:104B8000BB60BA687B685A60FB680433FB60FB68F3
:104B900018461437BD465DF8047B704780B483B077
:104BA00000AF7860034B18460C37BD465DF8047BB8
:104BB000704700BFA805010880B483B000AF7860DB
:104BC000034B18460C37BD465DF8047B704700BFA9
:104BD000BC05010880B582B000AF78607B681846DC
:104BE000FCF79AFB0E4A7B681A6079684FF0000266
:104BF0004FF00003C1E9022379684FF000024FF043
:104C00000003C1E9042379684FF000024FF000036C
:104C1000C1E906237B6818460837BD4680BD00BF42
:104C20003C08010880B48BB000AF78603960002385
:104C30007B627B68D3E90223C7E90623D7E9062311
:104C4000796A38680144D3B20B70D7E906014FF096
:104C500000024FF00003020A42EA01620B0A796A7D
:104C6000013138680144D3B20B70D7E906014FF027
:104C700000024FF00003020C42EA01420B0C796A79
:104C8000023138680144D3B20B70D7E906014FF006
:104C900000024FF00003020E42EA01220B0E796A75
:104CA000033138680144D3B20B70D7E906014FF0E5
:104CB00000024FF000030A000023796A04313868CB
:104CC0000144D3B20B70D7E906014FF000024FF058
:104CD00000030A0A0023796A053138680144D3B217
:104CE0000B70D7E906014FF000024FF000030A0CE9
:104CF0000023796A063138680144D3B20B70D7E9D2
:104D000006014FF000024FF000030A0E0023796AFB
:104D1000073138680144D3B20B707B6A08337B6279
:104D20007B68D3E90423C7E90423D7E90423796A1C
:104D300038680144D3B20B70D7E904014FF0000288
:104D40004FF00003020A42EA01620B0A796A01315C
:104D500038680144D3B20B70D7E904014FF0000268
:104D60004FF00003020C42EA01420B0C796A023157
:104D700038680144D3B20B70D7E904014FF0000248
:104D80004FF00003020E42EA01220B0E796A033152
:104D900038680144D3B20B70D7E904014FF0000228
:104DA0004FF000030A000023796A04313868014497
:104DB000D3B20B70D7E904014FF000024FF00003AB
:104DC0000A0A0023796A053138680144D3B20B70AE
:104DD000D7E904014FF000024FF000030A0C002352
:104DE000796A063138680144D3B20B70D7E90401FF
:104DF0004FF000024FF000030A0E0023796A0731DA
:104E000038680144D3B20B707B6A08337B627B68DD
:104E1000D3E90623C7E90223D7E90223796A386870
:104E20000144D3B20B70D7E902014FF000024FF0FA
:104E30000003020A42EA01620B0A796A013138680A
:104E40000144D3B20B70D7E902014FF000024FF0DA
:104E50000003020C42EA01420B0C796A0231386805
:104E60000144D3B20B70D7E902014FF000024FF0BA
:104E70000003020E42EA01220B0E796A0331386800
:104E80000144D3B20B70D7E902014FF000024FF09A
:104E900000030A000023796A043138680144D3B260
:104EA0000B70D7E902014FF000024FF000030A0A2D
:104EB0000023796A053138680144D3B20B70D7E911
:104EC00002014FF000024FF000030A0C0023796A40
:104ED000063138680144D3B20B70D7E902014FF0B4
:104EE00000024FF000030A0E0023796A0731386888
:104EF0000144D3B20B707B6A08337B627B6A18462D
:104F00002C37BD465DF8047B70472DE9B00FEBB040
:104F100000AFC7F88401C7F880110023C7F8A43197
:104F20004FF000024FF00003C7E96623D7E966019E
:104F3000D7F8A421D7F8803113441B78DBB20022C4
:104F40001C46154640EA040841EA0509C7E9668996
:104F5000D7E96601D7F8A4315A1CD7F88031134439
:104F60001B78DBB200229A4693464FF000024FF0C6
:104F700000034FEA0B2343EA1A634FEA0A2240EA8E
:104F80000204C7F878410B43C7F87C31D7E95E3497
:104F9000C7E96634D7E96601D7F8A4319A1CD7F877
:104FA000803113441B78DBB20022C7F87031C7F898
:104FB00074214FF000024FF00003D7E95C894C46A2
:104FC0002304444643EA14434446220440EA0204CC
:104FD000C7F868410B43C7F86C31D7E95A34C7E9C1
:104FE0006634D7E96601D7F8A431DA1CD7F88031E6
:104FF00013441B78DBB20022C7F86031C7F8642184
:10500000D7E9584523461B0AC7F85C3123461B06DF
:10501000C7F85831D7E9564523460343C7F85031FE
:105020002B460B43C7F85431D7E95434C7E96634EB
:10503000D7E96601D7F8A4311A1DD7F88031134497
:105040001B78DBB20022C7F84831C7F84C214FF07B
:1050500000024FF00003D7F848412300002240EA45
:105060000204C7F840410B43C7F84431D7E9503434
:10507000C7E96634D7E96601D7F8A4315A1DD7F8D5
:10508000803113441B78DBB20022C7F83831C7F8EF
:105090003C214FF000024FF00003D7F838412302C3
:1050A000002240EA0204C7F830410B43C7F834310C
:1050B000D7E94C34C7E96634D7E96601D7F8A4319B
:1050C0009A1DD7F8803113441B78DBB20022C7F851
:1050D0002831C7F82C214FF000024FF00003D7F819
:1050E00028412304002240EA0204C7F820410B4370
:1050F000C7F82431D7E94834C7E96634D7E96601EF
:10510000D7F8A431DA1DD7F8803113441B78DBB20D
:105110000022C7F81831C7F81C214FF000024FF0E9
:105120000003D7F818412306002240EA0204C7F81A
:1051300010410B43C7F81431D7E94434C7E966344A
:10514000D7E96601D7F88431C3E90201D7F8A43161
:105150000833C7F8A4314FF000024FF00003C7E94D
:105160006423D7E96401D7F8A421D7F88031134428
:105170001B78DBB20022C7F80831C7F80C21D7E949
:10518000424523460343C7F800312B460B43C7F87B
:105190000431D7E94034C7E96434D7E96401D7F86A
:1051A000A4315A1CD7F8803113441B78DBB200229B
:1051B000C7F8F830C7F8FC204FF000024FF00003AA
:1051C000D7E93E894C462302444643EA14634446E9
:1051D000220240EA0204C7F8F0400B43C7F8F4305B
:1051E000D7E93C34C7E96434D7E96401D7F8A4317E
:1051F0009A1CD7F8803113441B78DBB20022C7F821
:10520000E830C7F8EC204FF000024FF00003D7E978
:105210003A894C462304444643EA14434446220454
:1052200040EA0204C7F8E0400B43C7F8E430D7E98E
:105230003834C7E96434D7E96401D7F8A431DA1CFB
:10524000D7F8803113441B78DBB20022C7F8D8307E
:10525000C7F8DC20D7E9364523461B0AC7F8D43007
:1052600023461B06C7F8D030D7E93445234603430D
:10527000C7F8C8302B460B43C7F8CC30D7E93234D7
:10528000C7E96434D7E96401D7F8A4311A1DD7F807
:10529000803113441B78DBB20022C7F8C030C7F856
:1052A000C4204FF000024FF00003D7F8C0402300A5
:1052B000002240EA0204C7F8B8400B43C7F8BC30EC
:1052C000D7E92E34C7E96434D7E96401D7F8A431AB
:1052D0005A1DD7F8803113441B78DBB20022C7F87F
:1052E000B030C7F8B4204FF000024FF00003D7F8F9
:1052F000B0402302002240EA0204C7F8A8400B4352
:10530000C7F8AC30D7E92A34C7E96434D7E9640177
:10531000D7F8A4319A1DD7F8803113441B78DBB23B
:105320000022C7F8A030C7F8A4204FF000024FF0C9
:105330000003D7F8A0402304002240EA0204C7F883
:1053400098400B43C7F89C30D7E92634C7E964344A
:10535000D7E96401D7F8A431DA1DD7F880311344B6
:105360001B78DBB20022C7F89030C7F894204FF0CA
:1053700000024FF00003D7F890402306002240EAD5
:105380000204C7F888400B43C7F88C30D7E92234B1
:10539000C7E96434D7E96401D7F88431C3E904016B
:1053A000D7F8A4310833C7F8A4314FF000024FF00A
:1053B0000003C7E96223D7E96201D7F8A421D7F82F
:1053C000803113441B78DBB20022C7F88030C7F865
:1053D0008420D7E9204523460343BB672B460B4374
:1053E000FB67D7E91E34C7E96234D7E96201D7F811
:1053F000A4315A1CD7F8803113441B78DBB2002249
:105400003B677A674FF000024FF00003D7E91C8931
:105410004C462302444643EA14634446220240EACF
:105420000204BC660B43FB66D7E91A34C7E9623451
:10543000D7E96201D7F8A4319A1CD7F88031134418
:105440001B78DBB200223B667A664FF000024FF019
:105450000003D7E918894C462304444643EA144321
:105460004446220440EA0204BC650B43FB65D7E9CD
:105470001634C7E96234D7E96201D7F8A431DA1CDF
:10548000D7F8803113441B78DBB200223B657A6584
:10549000D7E9144523461B0AFB6423461B06BB645D
:1054A000D7E91245234603433B642B460B437B64F9
:1054B000D7E91034C7E96234D7E96201D7F8A431DB
:1054C0001A1DD7F8803113441B78DBB20022BB636E
:1054D000FA634FF000024FF00003BC6B2300002280
:1054E00040EA02043C630B437B63D7E90C34C7E911
:1054F0006234D7E96201D7F8A4315A1DD7F8803158
:1055000013441B78DBB20022BB62FA624FF0000248
:105510004FF00003BC6A2302002240EA02043C620E
:105520000B437B62D7E90834C7E96234D7E96201EB
:10553000D7F8A4310633D7F8802113441B78DBB2A7
:105540000022BB61FA614FF000024FF00003BC691A
:105550002304002240EA02043C610B437B61D7E94B
:105560000434C7E96234D7E96201D7F8A4310733BC
:10557000D7F8802113441B78DBB20022BB60FA60AD
:105580004FF000024FF00003BC682306002240EAFF
:1055900002043C600B437B60D7E90034C7E9623406
:1055A000D7E96223D7F88411C1E90623D7F8A431DB
:1055B0000833C7F8A431D7F8A431184607F5D677D1
:1055C000BD46BDE8B00F704780B483B000AF7860CF
:1055D000034B18460C37BD465DF8047B704700BF8F
:1055E000E005010880B483B000AF7860034B184633
:1055F0000C37BD465DF8047B704700BF18050108F5
:1056000080B582B000AF78607B681846FBF784FEF7
:10561000084A7B681A607B6808331846FFF7DAFA95
:105620007B6828331846FCF7C5FF7B6818460837A7
:10563000BD4680BD2408010880B584B000AF786005
:1056400039600023FB607B6803F10800FB683A685F
:1056500013441946FFF7E6FA0246FB681344FB6061
:105660007B6803F12800FB683A6813441946FCF78D
:10567000CFFF0246FB681344FB60FB6818461037F7
:10568000BD4680BD80B584B000AF7860396000232E
:10569000FB607B6803F10800FB683A681344194615
:1056A000FFF733FC0246FB681344FB607B6803F1A1
:1056B0002800FB683A6813441946FDF793F902463F
:1056C000FB681344FB60FB6818461037BD4680BD7D
:1056D00080B483B000AF7860034B18460C37BD46EA
:1056E0005DF8047B704700BFF405010880B483B007
:1056F00000AF7860034B18460C37BD465DF8047B5D
:10570000704700BF0806010880B582B000AF78601E
:105710007B681846FBF700FE0D4A7B681A607B68C1
:1057200008331846FFF76CFF7B6803F15802232308
:1057300007E04FF000004FF00001C2E90001013B1B
:105740000832002BF5DA7B6818460837BD4680BD65
:105750000C08010880B586B000AF7860396000237E
:105760007B617B6803F108007B693A681344194642
:10577000FFF762FF02467B6913447B6100233B61B4
:105780007DE07A683B690B33DB001344D3E90023E7
:10579000C7E90223D7E90223796938680144D3B203
:1057A0000B70D7E902014FF000024FF00003020A2C
:1057B00042EA01620B0A7969013138680144D3B2C7
:1057C0000B70D7E902014FF000024FF00003020C0A
:1057D00042EA01420B0C7969023138680144D3B2C4
:1057E0000B70D7E902014FF000024FF00003020EE8
:1057F00042EA01220B0E7969033138680144D3B2C1
:105800000B70D7E902014FF000024FF000030A00CD
:1058100000237969043138680144D3B20B70D7E9A9
:1058200002014FF000024FF000030A0A00237969D9
:10583000053138680144D3B20B70D7E902014FF04B
:1058400000024FF000030A0C002379690631386822
:105850000144D3B20B70D7E902014FF000024FF0C0
:1058600000030A0E00237969073138680144D3B276
:105870000B707B6908337B613B6901333B613B699A
:10588000232B7FF67EAF7B6918461837BD4680BD57
:105890002DE9F04FA3B000AF786739670023C7F850
:1058A00084307B6F03F10800D7F884203B6F1344EA
:1058B0001946FFF7E7FE0246D7F884301344C7F8CD
:1058C00084300023C7F88030F6E04FF000024FF03C
:1058D0000003C7E91E23D7E91E01D7F884203B6FD8
:1058E00013441B78DBB20022BB66FA66BB6E03432F
:1058F000BB65FB6E0B43FB65D7E91623C7E91E2387
:10590000D7E91E01D7F884305A1C3B6F13441B782B
:10591000DBB200229A4693464FF000024FF000039C
:105920004FEA0B2343EA1A634FEA0A2240EA0206CF
:105930003E650B437B65D7E91423C7E91E23D7E9EE
:105940001E01D7F884309A1C3B6F13441B78DBB2DE
:105950000022984691464FF000024FF000034FEAB4
:10596000094343EA18434FEA084240EA0206BE648C
:105970000B43FB64D7E91223C7E91E23D7E91E01B5
:10598000D7F88430DA1C3B6F13441B78DBB200225B
:105990003B667A663B6E1D0A3B6E1C0640EA0403BA
:1059A0003B6441EA05037B64D7E91023C7E91E2362
:1059B000D7E91E01D7F884301A1D3B6F13441B78BA
:1059C000DBB20022BB63FA634FF000024FF000032A
:1059D000BE6B3300002240EA02063E630B437B634A
:1059E000D7E90C23C7E91E23D7E91E01D7F8843075
:1059F0005A1D3B6F13441B78DBB20022BB62FA6274
:105A00004FF000024FF00003BE6A3302002240EA6A
:105A100002063E620B437B62D7E90823C7E91E23D7
:105A2000D7E91E01D7F884309A1D3B6F13441B78C9
:105A3000DBB20022BB61FA614FF000024FF00003BD
:105A4000BE693304002240EA02063E610B437B61DB
:105A5000D7E90423C7E91E23D7E91E01D7F884300C
:105A6000DA1D3B6F13441B78DBB20022BB60FA6087
:105A70004FF000024FF00003BE683306002240EAF8
:105A800002063E600B437B60D7E90023C7E91E2373
:105A9000D7E91E017A6FD7F880300B33DB0013444F
:105AA000C3E90001D7F884300833C7F88430D7F849
:105AB00080300133C7F88030D7F88030232B7FF651
:105AC00004AFD7F8843018468C37BD46BDE8F08F58
:105AD00080B483B000AF7860034B18460C37BD46E6
